:100000000C94EF000C9417010C9417010C94170139
:100010000C9417010C9417010C9417010C94170100
:100020000C9417010C9417010C9417010C941701F0
:100030000C9417010C9417010C9417010C941701E0
:100040000C942F070C9417010C94A4050C947E05B6
:100050000C9417010C9417010C9417010C941701C0
:100060000C9496090C94170100407A10F35A00A0E2
:10007000724E18090010A5D4E80000E87648170071
:1000800000E40B54020000CA9A3B000000E1F505B1
:10009000000080969800000040420F000000A086FB
:1000A00001000000102700000000E803000000002D
:1000B0006400000000000A000000000001000000D1
:1000C00000002C76D888DC674F0823DFC1DFAE59EB
:1000D000E1B1B796E5E3E453C63AE651997696E87E
:1000E000E6C28426EB898C9B62ED407C6FFCEFBC02
:1000F0009C9F40F2BAA56FA5F490055A2AF75C932D
:100100006B6CF9676DC11BFCE0E40D47FEF520E662
:10011000B500D0ED902E0300943577050080841E45
:10012000080000204E0A000000C80C333333330FA0
:10013000986E12831141EF8D2114893BE65516CF3D
:10014000FEE6DB18D1844B381BF77C1D901DA4BB49
:10015000E424203284725E228100C9F124ECA1E5FE
:100160003D27000000080002010000030407000012
:1001700000000000000000000000250028002B0007
:1001800000000000240027002A00000000002300D7
:1001900026002900040404040404040402020202E8
:1001A000020203030303030301020408102040803A
:1001B000010204081020010204081020005EBCE2C5
:1001C000613FDD83C29C7E20A3FD1F41009D23BEB5
:1001D00046DB65F88C11AF32CA57E974BD0B1124A8
:1001E0001FBECFEFD8E0DEBFCDBF23E0AEE8B1E069
:1001F00001C01D92A835B207E1F711E0A0E0B1E01F
:10020000EEE2FAE302C005900D92AE38B107D9F7DD
:1002100010E0CFEED0E004C02197FE010E94031B46
:10022000CE3ED107C9F70E94240D0C94151D0C94E5
:10023000000090E0FC01EE59FE4F2491FC01E855CE
:10024000FE4F3491FC01EC56FE4FE491EE23B1F1E8
:10025000222339F1233091F038F42130A9F02230F3
:1002600001F584B58F7D12C0273091F02830A1F0C0
:100270002430B9F4809180008F7D03C0809180008C
:100280008F77809380000DC084B58F7784BD09C0BF
:100290008091B0008F7703C08091B0008F7D8093F4
:1002A000B000F0E0EE0FFF1FEA58FE4FA591B491A9
:1002B0008FB7F894EC913E2B3C938FBF0895CF936A
:1002C000DF93009779F0FC0101900020E9F7319766
:1002D000AF01481B590BBC0180E292E00E94C40AA6
:1002E000EC0102C0C0E0D0E042E050E066E471E022
:1002F00080E292E00E94C40A8C0F9D1FDF91CF9193
:10030000089510921F0210921E0210921D02109268
:100310001C0210921B0281E080931A0210921902B3
:1003200082E10E94190183E10E941901E9EBF0E0EA
:1003300080818E7F808380818D7F808388E480931D
:10034000B80085E48093BC00089520911C02909130
:100350001802213208F04AC080911B028111FCCFA3
:1003600032E030931B0231E030931A023FEF3093BA
:10037000F6011092F5012093F401A8EFB1E044EDED
:1003800051E0FA013E2F341B321718F43D9131939E
:10039000F9CF1092D3012091D301990F922B909312
:1003A000D30190911902913061F410921902909149
:1003B000D3019093BB009091BC0093FDF8CF95ECD6
:1003C00001C095EE9093BC0090911B029230E1F336
:1003D0009091F6019F3F79F08091F601803241F0D3
:1003E0008091F601803331F084E005C081E003C0E4
:1003F00082E001C083E010921D0210921C02109254
:10040000F7010895CF93DF930E9481011092FC02BF
:1004100080910103823018F098E09093FC02809361
:10042000FF0262E370E080E090E00E94F5066091D8
:10043000020387EF92E00E940E0868EE73E080E00E
:1004400090E00E94F50660E387EF92E00E942108A9
:10045000CBE4D6E4CE010197F1F760E387EF92E0B9
:100460000E9421082197F1F760E387EF92E00E9454
:10047000210883E592E00197F1F760E287EF92E0CF
:100480000E9421086091FC02606240E087EF92E0E8
:100490000E943A0884E08093FD0240E06CE087EF20
:1004A00092E00E943A0840E061E087EF92E00E940B
:1004B0003A08CBE3DFE1CE010197F1F782E08093C8
:1004C000FE0240E066E087EF92E00E943A0840E0DA
:1004D00062E087EF92E00E943A082197F1F7DF91FE
:1004E000CF910895E0E2F2E0A089B18982E08C9397
:1004F000A485B5851C92A685B7858FEC8C93108E4C
:10050000A489B58986E08C93A289B3898C91806196
:100510008C93A289B3898C9188608C93A289B389CA
:100520008C9180688C930288F389E02D80818F7D87
:100530008083089590911B029111FCCF613208F0E5
:1005400060E291E090931B0290931A022FEF2093A8
:10055000F6011092F501260F2093F4019093D30138
:100560009091D301880F892B8093D3018091190238
:10057000813061F4109219028091D3018093BB0005
:100580008091BC0083FDF8CF85EC01C085EE80939F
:10059000BC0080911B028130E1F38091F501861748
:1005A00010F46091F501A4EDB1E023EB31E0F90125
:1005B0008E2F821B861718F48D918193F9CF10929C
:1005C0001F0260931E02862F08951F93CF93DF931F
:1005D00091E09093F70196E79093180210921D0214
:1005E00010921C02682F8DEB92E00E949F060E94E1
:1005F000A50162E070E086E790E00E949A022091F7
:100600001E0230E080911F02281B31092230310583
:10061000ECF38DEB92E00E945306182F8DEB92E0E5
:100620000E945306D12F20E0C22F9E01282BC90122
:10063000DF91CF911F9108950E94E50298278927A5
:100640009827089591E09093F70196E79093180208
:1006500010921D0210921C02682F8DEB92E00E94F6
:100660009F060E94A50161E070E086E790E00E948D
:100670009A0290911E0280911F029817F1F38DEB60
:1006800092E00E9453060895CF93C62F91E0909375
:10069000F70196E79093180210921D0210921C0227
:1006A000682F8DEB92E00E949F066C2F8DEB92E0FD
:1006B0000E949F06CF910C94A501FC0144815581B5
:1006C0006081718187EF92E00C94C40ACF93DF932D
:1006D000CDB7DEB728970FB6F894DEBF0FBECDBFFB
:1006E00028E0EEE0F1E0DE01119601900D922A95EE
:1006F000E1F72091FF02261710F46FEF620FFE0161
:100700003196E60FF11DE60FF11D9081682F690FFC
:10071000606840E087EF92E028960FB6F894DEBF5D
:100720000FBECDBFDF91CF910C943A08CF92DF92EC
:10073000EF92FF9291E09093F70196E79093180261
:1007400010921D0210921C02682F8DEB92E00E9405
:100750009F060E94A50163E070E086E790E00E949A
:100760009A0280911E0290E020911F02821B910943
:1007700083309105ECF38DEB92E00E9453066C01FF
:10078000990FEE08FF08FE2CED2CDC2CCC248DEB11
:1007900092E00E945306AC01990F660B770BC42AB6
:1007A000D52AE62AF72AFE2CED2CDC2CCC248DEB66
:1007B00092E00E945306092E000CAA0BBB0BBC0151
:1007C000CD016C297D298E299F29FF90EF90DF9024
:1007D000CF9008958F929F92AF92BF92CF92DF9267
:1007E000EF92FF928AEF0E949603EEE8F1E02081FB
:1007F0003181C72ED82EE92EFF24E7FCFA94C21AC5
:10080000D30AE108F108DC01CB0157E0B595A795C3
:10081000979587955A95D1F7220F331F4C015D01AB
:10082000821A930AA108B108A5019401A281B3819B
:100830000E94AD194B015C017BE0B594A79497949D
:1008400087947A95D1F7A7019601C701B6010E9456
:100850009D199B01AC01ACE05595479537952795BF
:10086000AA95D1F7A481B5810E94AD19DC01CB0115
:100870002EE0B595A795979587952A95D1F7A5016F
:100880009401280F391F4A1F5B1F21A332A343A3E2
:1008900054A3A5E0B0E00E94A418DC01CB0180586D
:1008A0009F4FAF4FBF4F692F7A2F8B2F992787FD0F
:1008B0009A950E94AB1720E030E048EC52E40E9489
:1008C000F518FF90EF90DF90CF90BF90AF909F9082
:1008D0008F900895EF92FF920F931F93CF93DF9322
:1008E000FC01248135816115710511F480E019C086
:1008F00041155105A9F07B01EC018A01020F131F7C
:10090000B8010E94EF0A882389F3288139818C81FC
:100910009D81B701820F931F0E940E1D1D830C83C2
:1009200081E0DF91CF911F910F91FF90EF9008959B
:10093000CF93DF93EC016115710561F0FB0101902C
:100940000020E9F73197AF01461B570B0E946A045C
:10095000811103C0CE010E94160BCE01DF91CF9111
:100960000895CF93DF93EC01FB01448155816081B1
:1009700071810E946A04811103C0CE010E94160B8E
:10098000CE01DF91CF9108956115710551F0FB0102
:1009900001900020E9F73197AF01461B570B0C94EB
:1009A0006A0480E00895FB01448155816081718172
:1009B0000C946A04FC01538D448D252F30E0842F64
:1009C00090E0821B930B541710F0CF960895019777
:1009D0000895FC01918D828D981761F0828DDF0161
:1009E000A80FB11D5D968C91928D9F5F9F73928F22
:1009F00090E008958FEF9FEF0895FC01918D828D17
:100A0000981731F0828DE80FF11D858D90E00895E3
:100A10008FEF9FEF089580E292E00E94D60521E0DB
:100A2000892B09F420E0822F0895EF92FF920F9313
:100A30001F93CF93DF93EC0181E0888F9B8D8C8D8A
:100A4000981305C0E889F989808185FD24C0F62EB8
:100A50000B8D10E00F5F1F4F0F731127E02E8C8D51
:100A6000E8120CC00FB607FCFACFE889F98980813B
:100A700085FFF5CFCE010E94D406F1CF8B8DFE010C
:100A8000E80FF11DE35AFF4FF0820B8FEA89FB89D3
:100A90008081806207C0EE89FF896083E889F989D7
:100AA00080818064808381E090E0DF91CF911F910D
:100AB0000F91FF90EF900895CF93DF93EC01888D15
:100AC0008823C9F0EA89FB89808185FD05C0A88952
:100AD000B9898C9186FD0FC00FB607FCF5CF8081D8
:100AE00085FFF2CFA889B9898C9185FFEDCFCE0122
:100AF0000E94D406E7CFDF91CF9108951F920F9205
:100B00000FB60F9211242F933F934F935F936F93E0
:100B10007F938F939F93AF93BF93EF93FF9380E265
:100B200092E00E94D406FF91EF91BF91AF919F9107
:100B30008F917F916F915F914F913F912F910F9086
:100B40000FBE0F901F9018951F920F920FB60F9225
:100B500011242F938F939F93EF93FF93E091300293
:100B6000F09131028081E0913602F091370282FDEE
:100B700012C09081809139028F5F8F7320913A0269
:100B8000821751F0E0913902F0E0E05EFD4F958F61
:100B90008093390201C08081FF91EF919F918F91E5
:100BA0002F910F900FBE0F901F901895FC01918D03
:100BB000228D892F90E0805C9F4F821B91098F735B
:100BC0009927089580E090E0892B29F00E940B0579
:100BD00081110C94000008953FB7F8948091500360
:100BE00090915103A0915203B091530326B5A89B55
:100BF00005C02F3F19F00196A11DB11D3FBFBA2FAF
:100C0000A92F982F8827820F911DA11DB11DBC010E
:100C1000CD0142E0660F771F881F991F4A95D1F7D3
:100C2000089585ED8093BC008091BC0084FDFCCFCD
:100C300010921B02089540912603262F30E0240FC6
:100C4000311D21323105DCF420911B022430C9F41E
:100C5000FC0180E090E0861758F430912603219142
:100C6000DC01AC5FBC4FA30FB11D2C930196F3CFF9
:100C700080912603680F6093260380E0089581E049
:100C8000089582E008950895E0911F0280911E0268
:100C9000E81730F4F0E0ED54FE4F808190E00895C5
:100CA0008FEF9FEF089590911F0280911E02981779
:100CB00050F4E92FF0E0ED54FE4F208130E09F5FCB
:100CC00090931F0202C02FEF3FEFC901089580915A
:100CD0001E0290E020911F02821B91090895CF927D
:100CE000DF92EF92FF920F931F93CF93DF937C01DC
:100CF000262F972F8A018091F701882391F0C62F24
:100D0000D72F6E01C40ED51ECC15DD0571F069918B
:100D1000D701ED91FC910190F081E02DC70109957B
:100D2000F3CF642F822F0E941B06C801DF91CF9161
:100D30001F910F91FF90EF90DF90CF900895CF9388
:100D4000DF931F92CDB7DEB769832091F70122238D
:100D5000D1F020911C02203240F021E030E0FC0173
:100D60003383228380E090E015C080911D02E82F3C
:100D7000F0E0E850FE4F998190838F5F80931D02D1
:100D800080931C0205C061E0CE0101960E941B0603
:100D900081E090E00F90DF91CF910895089580E079
:100DA00090E008950E94001DFC01848DDF01A80FD2
:100DB000B11DA35ABF4F2C91848D90E001968F7383
:100DC0009927848FA689B7892C93A089B1898C91A2
:100DD00080648C93938D848D981306C00288F38968
:100DE000E02D80818F7D808308958F929F92AF92B6
:100DF000BF92CF92DF92EF92FF926B017C010E9433
:100E0000EC054B015C01C114D104E104F104F1F0E3
:100E10000E94EC05DC01CB0188199909AA09BB09DC
:100E2000883E9340A105B10570F321E0C21AD108B4
:100E3000E108F10888EE880E83E0981EA11CB11C21
:100E4000C114D104E104F10419F7DDCFFF90EF9054
:100E5000DF90CF90BF90AF909F908F9008951F929A
:100E60000F920FB60F9211242F933F938F939F935E
:100E7000AF93BF9380914C0390914D03A0914E038B
:100E8000B0914F0330914B0323E0230F2D3720F413
:100E90000196A11DB11D05C026E8230F0296A11DD4
:100EA000B11D20934B0380934C0390934D03A0936B
:100EB0004E03B0934F038091500390915103A09142
:100EC0005203B09153030196A11DB11D80935003AD
:100ED00090935103A0935203B0935303BF91AF91EA
:100EE0009F918F913F912F910F900FBE0F901F9068
:100EF0001895FC0190810180F281E02DF8948181A8
:100F0000892B81832281892F809528232283A7E042
:100F1000B0E01197F1F7218182238183A3E2B0E051
:100F20001197F1F780817894EFECF0E03197F1F7C9
:100F3000982381E009F480E00895FC01908101800C
:100F4000F281E02D892F809560FF12C0F8942281F4
:100F5000822382838181892B8183A3E2B0E0119770
:100F6000F1F78281982B9283789487ED90E011C0FD
:100F7000F8942281822382838181892B8183AFEF40
:100F8000B0E01197F1F78281982B928378948FE0EB
:100F900090E00197F1F70895CF92DF92EF92FF92E0
:100FA0000F931F93CF93DF931F92CDB7DEB76C01E2
:100FB000E62E08E010E0FF24F39461E08F2D8E21EF
:100FC00009F460E0C60149830E949D07FF0C0150AF
:100FD000110949810115110581F7411115C0F894D6
:100FE000D6011196ED91FC91129791818C9180958B
:100FF000892381831196ED91FC91129792818C91B6
:1010000080958923828378940F90DF91CF911F91EF
:101010000F91FF90EF90DF90CF900895FC01248115
:1010200031E03093F7012093180210921D021092C4
:101030001C028385682B8DEB92E00E949F060C9426
:10104000A5010F931F93CF938C01C62F0E940E080A
:101050006C2F6460C8010E940E086C2F6B7FC80162
:101060000E940E0883EC90E00197F1F7CF911F9159
:101070000F910895FF920F931F93CF93DF931F92C9
:10108000CDB7DEB78C01F62E962F907F692F642B9B
:10109000C80149830E94210880E1F89EB001112413
:1010A0004981642BC8010F90DF91CF911F910F915F
:1010B000FF900C94210841E00E943A0881E090E002
:1010C0000895EF92FF920F931F93CF93DF93EC015C
:1010D0009881E981FA81F8942181892F80952823CC
:1010E000218378943DE743E050E0315011F480E0F3
:1010F00049C0DA011197F1F720812923B1F3F8945F
:101100002281282322832181292B21837894ABE714
:10111000B7E01197F1F7F894218182238183A3E14D
:10112000B1E01197F1F7808189237894E3E6F6E046
:101130003197F1F78111DBCF6C3CA1F078F4653584
:1011400009F540E065E5CE010E94CC078E010F5EF7
:101150001F4F7E0189E1E80EF11C09C06C3E11F0C1
:10116000603F81F440E0CE010E94CC070AC0F80144
:1011700061918F0140E0CE010E94CC070E151F0542
:10118000B1F781E0DF91CF911F910F91FF90EF9028
:1011900008958F929F92AF92BF92CF92DF92EF927B
:1011A000FF920F931F93CF93DF93EC0165E50E94AD
:1011B0006108882329F040E06EEBCE010E94CC0745
:1011C0008E01075E1F4F4E0182E2880E911C58016E
:1011D00088E0C82ED12CEE24E394F12CCE010E949D
:1011E00079078111FE28EE0CE1E0CE1AD108B1F7A3
:1011F000F801F1928F01E815F90551F7D50129E0C1
:10120000E0E0215089F09D919E27E92FEF70F0E0FA
:10121000E454FE4F849192959F70E92FF0E0E453DF
:10122000FE4FE491E827EDCF81E099A1E91380E03A
:10123000DF91CF911F910F91FF90EF90DF90CF90B2
:10124000BF90AF909F908F900895FC01858D8F3354
:1012500051F018F48F3151F008C08F3549F08F37B5
:1012600021F48CE008958AE00895089589E00895B6
:101270008BE00895EF92FF920F931F93CF93DF932C
:10128000EC017B0160EF0E946108882329F110E0E6
:10129000CE010E947907082FCE010E947907002312
:1012A00011F0811119C0812F869586958695F701D9
:1012B000E80FF11D808190E0212F277002C09595E5
:1012C00087952A95E2F7682F6170CE010E949D07ED
:1012D0001F5F1034E9F602C080E021C088E0F7010A
:1012E000DE01519601900D928A95E1F7CE010E94A0
:1012F000C9088823A1F0CE010E9425098AA365E5CB
:10130000CE010E946108882329F040E064EBCE0101
:101310000E94CC07CE010E9479078BA381E0DF9168
:10132000CF911F910F91FF90EF9008951F920F9210
:101330000FB60F9211242F933F934F935F936F93A8
:101340007F938F939F93AF93BF93EF93FF9380917E
:10135000B900887F803609F49CC068F5883209F4AA
:101360005BC090F4803109F454C038F4882309F448
:10137000F6C0883009F44DC0F6C0883109F44CC07D
:10138000803209F45DC0EFC0803409F468C048F4CD
:10139000803309F455C0883309F0E5C08093F60125
:1013A000D8C0803509F44FC0883509F45DC0883451
:1013B00009F0D9C0D6C0883909F4C7C0A8F4883765
:1013C00009F467C038F4883609F463C0803709F43B
:1013D00060C0C9C0883809F4B8C0803909F45FC05A
:1013E000803809F0C0C05BC0803B09F486C038F487
:1013F000803A09F466C0883A09F47FC0B4C0803CE2
:1014000009F4A7C0883C09F4A4C0883B09F48AC049
:10141000AAC08091D30110C09091F5018091F40190
:10142000981770F5E091F50181E08E0F8093F5013A
:10143000F0E0EC52FE4F80818093BB0085EC86C0CB
:101440008093F6018EC0E091F50181E08E0F8093CC
:10145000F5018091BB00F0E0EC52FE4F808390914B
:10146000F5018091F4016EC0E091F50181E08E0FED
:101470008093F5018091BB00F0E0EC52FE4F808339
:1014800080911A0281116DC081E08093190284EA73
:1014900061C083E080931B0210924A03CFCF8091FA
:1014A0004A03803208F051C0E0914A0381E08E0F78
:1014B00080934A038091BB00F0E0E65DFC4F80839F
:1014C000BDCF85EC8093BC0010921B0280914A0333
:1014D000803230F4E0914A03F0E0E65DFC4F108288
:1014E00060914A0370E0E0912803F09129038AE2B9
:1014F00093E0099510924A0336C084E080931B0262
:101500001092270310922603E0912403F091250303
:10151000099580912603811105C081E080932603FF
:1015200010920403E091270381E08E0F809327033C
:10153000F0E0EC5FFC4F80818093BB00909127032B
:1015400080912603981708F479CF85E88093BC0032
:101550000AC085EC8093BC0010921B0204C010925C
:10156000F6010E941106FF91EF91BF91AF919F91FB
:101570008F917F916F915F914F913F912F910F903C
:101580000FBE0F901F901895CF92DF92EF92FF92AF
:101590000F931F93CF93DF936C017A018B01C0E00F
:1015A000D0E0CE15DF0589F0D8016D918D01D6010F
:1015B000ED91FC910190F081E02DC6010995892BF8
:1015C00011F47E0102C02196ECCFC701DF91CF91CB
:1015D0001F910F91FF90EF90DF90CF9008950F93A0
:1015E0001F93CF93DF93EC0188819981009729F0B5
:1015F0002A813B812617370788F48B016F5F7F4F65
:101600000E94361C009761F0998388831B830A83AC
:101610002C813D81232B11F4FC01108281E001C05B
:1016200080E0DF91CF911F910F910895CF93DF93C9
:10163000EC0188819981009711F00E949E1B19820C
:1016400018821D821C821B821A82DF91CF9108951D
:10165000EF92FF920F931F93CF93DF93EC017B01E7
:101660008A01BA010E94EF0A811104C0CE010E94D2
:10167000160B07C01D830C83B701888199810E94D6
:101680000E1DCE01DF91CF911F910F91FF90EF9032
:101690000895CF93DF93EC016115710559F0FB01BB
:1016A00001900020E9F73197AF01461B570B0E94CC
:1016B000280B02C00E94160BCE01DF91CF91089536
:1016C000CF93DF93EC01FB018617970761F06081F0
:1016D00071816115710529F0448155810E94280BA3
:1016E00002C00E94160BCE01DF91CF910895FC013C
:1016F000808191810C949E1B0F931F93CF93DF9356
:10170000CDB7DEB762970FB6F894DEBF0FBECDBF80
:101710008C01CB01F8011182108213821282158292
:10172000148250E0BE016F5F7F4F0E940315BE011F
:101730006F5F7F4FC8010E94490B62960FB6F89405
:10174000DEBF0FBECDBFDF91CF911F910F910895E6
:10175000FC0111821082138212821582148261159B
:10176000710551F0FB0101900020E9F73197AF01BD
:10177000461B570B0C94280B0895BF92CF92DF9213
:10178000EF92FF920F931F93CF93DF931F92CDB7EA
:10179000DEB7109223021092220288EE93E0A0E0BE
:1017A000B0E08093240290932502A0932602B09388
:1017B00027022AE131E0309321022093200225EC18
:1017C00030E030932D0220932C0224EC30E0309353
:1017D0002F0220932E0220EC30E030933102209330
:1017E000300221EC30E0309333022093320222ECBD
:1017F00030E0309335022093340226EC30E0309311
:101800003702209336021092390210923A02109257
:101810003B0210923C021092C0021092BF028093D1
:10182000C1029093C202A093C302B093C4028CE29F
:1018300091E09093BE028093BD021092FA02109242
:10184000F9028EE391E09093F8028093F70287E229
:101850008093FB0284E18093000384E08093010382
:1018600010920203EEEAF1E02491EAE9F1E08491BA
:101870008823C9F090E0880F991FFC01E058FE4FC3
:1018800045915491FC01EA58FE4FA591B4919FB740
:10189000F894FA0180812095822380838C91E22F35
:1018A000E823EC939FBFEEEAF1E0E491E093C902F4
:1018B000EAE9F1E0E491F0E0EE0FFF1FE657FE4F9A
:1018C000859194919093CB028093CA021092D40296
:1018D0001092D6021092D502E4EDF2E0129282E06C
:1018E000EC3CF807D9F71092F5021092F6026CEC76
:1018F00089EC92E00E946108882331F040E064EBBB
:1019000089EC92E00E94CC0789EC92E00E94790772
:101910008093D802C12CD12C7601C39411E0809120
:10192000F60281113AC060EF89EC92E00E946108F2
:10193000882399F100E0B12C89EC92E00E947907AC
:10194000682F89EC92E069830E9479076981662398
:1019500029F0882319F01092F5026BC04B2D4770C7
:101960002B2D26952695269530E061111CC08111FE
:101970002AC08091F502B816A9F08B1518F1F9016B
:10198000E753FD4F84A190E0042E02C09595879502
:101990000A94E2F780FF16C005C01092F50210927B
:1019A000F60247C061E0F901E753FD4FD701C601D8
:1019B00004C0880F991FAA1FBB1F4A95D2F724A104
:1019C000822B10C00B2DF901E753FD4FD701C60143
:1019D00004C0880F991FAA1FBB1F4A95D2F7809594
:1019E00094A1892384A389EC92E00E949D07B3947B
:1019F000E0E4BE12A1CF0093F502011102C01093E2
:101A0000F6026DEE72E089EC92E00E943A098823BA
:101A100081F089EC92E00E9425099091D7029817F5
:101A200010F48093D7028091D9028F5F8093D902FE
:101A300076CF0F90DF91CF911F910F91FF90EF9094
:101A4000DF90CF90BF900895CF93DF93CDB7DEB7EF
:101A5000CE55D1090FB6F894DEBF0FBECDBF789436
:101A600084B5826084BD84B5816084BD85B58260A3
:101A700085BD85B5816085BD80916E008160809354
:101A80006E001092810080918100826080938100BD
:101A900080918100816080938100809180008160CD
:101AA000809380008091B10084608093B100809128
:101AB000B00081608093B00080917A008460809350
:101AC0007A0080917A00826080937A0080917A0017
:101AD000816080937A0080917A00806880937A0098
:101AE0001092C10060E071E089EC92E00E943A0936
:101AF000809303030E9472020E94810180ED0E9484
:101B00002203803609F05AC788E80E941C0390938C
:101B10008F0180938E018AE80E941C0390939101AB
:101B2000809390018CE80E941C0390939301809312
:101B300092018EE80E941C0390939501809394017A
:101B400080E90E941C03909397018093960182E99B
:101B50000E941C03909399018093980184E90E944C
:101B60001C0390939B0180939A0186E90E941C03B9
:101B700090939D0180939C0188E90E941C0390939F
:101B80009F0180939E018AE90E941C039093A1010A
:101B90008093A0018CE90E941C039093A301809381
:101BA000A2018EE90E941C039093A5018093A401D9
:101BB00081EA0E9422038093A60181EE0E941C0309
:101BC0009093A8018093A70183EE0E942203809343
:101BD000A90184EE0E942203182F85EE0E942203A1
:101BE000282F2F7030E1139FC0011124822B909376
:101BF000AB018093AA0186EE0E942203182F85EE86
:101C00000E942203282F22952F7040E1149FC001CB
:101C10001124822B9093AD018093AC0187EE0E943A
:101C200022038093AE0165E082EF0E94440367EBDC
:101C300084EF0E9444030E9472020E9402020E94EA
:101C4000020288E08093020360E087EF92E00E9446
:101C50000E080E94810151E05093F70188E68093BD
:101C6000180210921D0210921C0260E08DEB92E0AF
:101C70000E949F060E94A50167E070E088E690E060
:101C80000E949A028DEB92E00E945306082F0F7774
:101C9000802F82958F701AEF819F000D11248DEB9C
:101CA00092E00E9453069C01332794E035952795D6
:101CB0009A95E1F7582F129F500D11245EAB8DEBD2
:101CC00092E00E9453069C01332744E03595279506
:101CD0004A95E1F7582F129F500D11245AAF8DEB02
:101CE00092E00E9453068DEB92E00E9453069C0105
:101CF000332754E0359527955A95E1F7382E129FF2
:101D0000300C11248DEB92E00E9453069C01332786
:101D100064E0359527956A95E1F7282E129F200CEF
:101D200011248DEB92E00E9453069C01332774E04E
:101D3000359527957A95E1F7129F800D1124482E4D
:101D4000512CE4E1EE2EF12C2AADA22EB12C3EA9AD
:101D5000832E912C10E0632C712CC22CD12C40E3EB
:101D6000441A48EF540A60E080E00E94660368E489
:101D700071E0CE0188960E94A80B5AAD5A3030F41B
:101D800069E471E0CE0188960E94C4044AE0B5017E
:101D9000CE0182960E947C0B1A8219821C821B82C1
:101DA0001E821D82BE016E5D7F4FCE0101960E9494
:101DB000600B6BE471E0CE0101960E949804BC01B7
:101DC000CE0188960E94D304CE0101960E94770B23
:101DD000CE0182960E94770B2EA92A3030F469E456
:101DE00071E0CE0188960E94C4044AE0B401CE019D
:101DF00082960E947C0B1A8219821C821B821E8290
:101E00001D82BE016E5D7F4FCE0101960E94600B68
:101E10006BE471E0CE0101960E949804BC01CE01F2
:101E200088960E94D304CE0101960E94770BCE01C2
:101E300082960E94770B0A30110534F469E471E050
:101E4000CE0188960E94C4044AE0B801CE010196F2
:101E50000E947C0BBE016F5F7F4FCE0188960E946F
:101E6000D304CE0101960E94770BCE0188960E9482
:101E70005D0360E08AE00E94660368E471E0CE01E1
:101E800088960E94490B39E0331530F069E471E01F
:101E9000CE0188960E94C4044AE0B301CE01829626
:101EA0000E947C0B1A8219821C821B821E821D8258
:101EB000BE016E5D7F4FCE0101960E94600B6DE406
:101EC00071E0CE0101960E949804BC01CE01889673
:101ED0000E94D304CE0101960E94770BCE01829618
:101EE0000E94770B49E0421530F069E471E0CE01C1
:101EF00088960E94C4044AE0B601CE0182960E94F0
:101F00007C0B1A8219821C821B821E821D82BE01DA
:101F10006E5D7F4FCE0101960E94600B6DE471E013
:101F2000CE0101960E949804BC01CE0188960E94C1
:101F3000D304CE0101960E94770BCE0182960E94B7
:101F4000770B4AE0B201CE0101960E947C0BBE01E4
:101F50006F5F7F4FCE0188960E94D304CE01019619
:101F60000E94770BCE0188960E945D03CE01889671
:101F70000E94770B51E0E51AF10809F0F4CE1091B8
:101F8000EC0265E589EC92E00E946108882341F04B
:101F900041E0111140E064E489EC92E00E94CC073A
:101FA0008091EB029091EC02992339F089EC92E058
:101FB0000E9479078823D1F31EC08A3089F038F453
:101FC0008930C9F46EE570E080E090E012C08B309B
:101FD00061F08C3081F46EEE72E080E090E009C038
:101FE0006CEB70E080E090E004C067E771E080E0B7
:101FF00090E00E94F50689EC92E00E94C908809169
:10200000E2026091E3029091EB029A3031F09B3052
:1020100031F0993029F4887F03C08C7F01C08E7F16
:1020200070E0762F6627680F711D072E000C880B55
:10203000990B0E94AB1720E030E040E85DE30E947E
:10204000E6176B017C010E9467194AE0CE018E966B
:102050000E947C0B6FE471E0CE018E960E94C40456
:1020600063E080E00E94660368E471E0CE01889638
:102070000E94A80B1BA21AA21DA21CA21FA21EA294
:102080008E010F5F1F4F22E044E0C701B6010E949E
:10209000E314BC01CE0182960E94490B63E571E016
:1020A000C8010E94A80BBE016E5D7F4FC8010E944F
:1020B000B1048C018FED8CAB1DAA41E050E0BE0154
:1020C0006C5C7F4FC8010E946A04811103C0C80183
:1020D0000E94160B60E571E0C8010E949804BC01E3
:1020E000CE0188960E94600BCE0101960E94770B6C
:1020F000CE0182960E94770BCE0188960E945D03E6
:10210000CE0188960E94770BCE018E960E94770BA7
:102110000E94EA0368966CAF7DAF8EAF9FAF689761
:102120000E94EA0387EF0E9496036C966CAF7DAF26
:102130008EAF9FAF6C978091AF019091B001A0914D
:10214000B101B091B2016C017D01FF0CCC08DC2C17
:1021500076019C01AD016C2D7C2D8C2D9C2D345F66
:102160004140510961097109810991092EAB3AAFCA
:102170004BAF5CAF6DAF7EAF8FAF21969FAF219716
:1021800059016A017B018C010E94B5192D962FAF70
:102190002D972E963FAF2E972F964FAF2F97609685
:1021A0005FAF609761966FAF619762967FAF6297FE
:1021B00063968FAF639764969FAF649780919E01FB
:1021C0006D968FAF6D9720919F0122962FAF22972A
:1021D00030919C016E963FAF6E9740919D01239682
:1021E0004FAF239750919A016F965FAF6F97809191
:1021F0009B0124968FAF2497B0909701A0909601F1
:102200001B2D110F110BC12ED12EE12EF12E012FFE
:102210002EA93AAD4BAD5CAD6DAD7EAD8FAD2196C7
:102220009FAD21970E94B5190CE00E94AE1A1901CA
:102230002A013B014C01B0909901A09098011B2DFF
:10224000110F110BC12ED12EE12EF12E012F2D9643
:102250002FAD2D972E963FAD2E972F964FAD2F97E2
:1022600060965FAD609761966FAD619762967FAD46
:10227000629763968FAD639764969FAD64970E9453
:10228000B51908E00E94C71A510162017301840167
:102290000E94E51A70588F4F9F4F20909401309004
:1022A00095015101C12CD12CE12CF12C00E010E062
:1022B0000E94B51901E20E94C71A25962FAF2597F3
:1022C00026963FAF269727964FAF279728965FAF62
:1022D000289729966FAF29972A967FAF2A972B9632
:1022E0008FAF2B972C969FAF2C97A0E00E94F71AE8
:1022F00009F49AC16D96AFAC6D9722961FAD2297E7
:10230000110F110B2296BFAC2297C12ED12EE12EB8
:10231000F12E012F2D962FAD2D972E963FAD2E9796
:102320002F964FAD2F9760965FAD609761966FAD1A
:10233000619762967FAD629763968FAD639764965F
:102340009FAD64970E94B51919012A013B014C0108
:102350006E96AFAC6E9723961FAD2397110F110B9E
:102360002396BFAC2397C12ED12EE12EF12E012F43
:102370002EA93AAD4BAD5CAD6DAD7EAD8FAD219666
:102380009FAD21970E94B51901E10E94AE1A590133
:102390006A017B018C019101A201B301C4010E9479
:1023A000E51A19012A013B014C016C968CAD9DADDB
:1023B000AEADBFAD6C97E4E0B595A79597958795C1
:1023C000EA95D1F720E030E040E150E0281B390BDE
:1023D0004A0B5B0BDA01C90169017A01FF0CCC08D9
:1023E000DC2C7601AD016C2D7C2D8C2D9C2D0FE10C
:1023F0000E94AE1AB22FA32FF42FE52F6EAB7AAF47
:102400008BAF9CAF6F962FAD6F9724969FAD24979F
:10241000990F990B24963FAD2497492F592F692F77
:10242000792F892F03E20E94AE1A59016A017B01BC
:102430008C019101A201B301C4010E94E51A590166
:102440006A017B018C012B2F3A2F4F2F5E2F6EA933
:102450007AAD8BAD9CAD0E94EE1A722E832E942E17
:10246000B52FA62FF72FE82F592E03E00E94AE1AA2
:10247000A72CB82CC92CDB2EEA2EFF2E0E2F152DE3
:102480000E94EE1A59016A017B01682E192F03E0A0
:102490000E94AE1A062D0E94EE1A03E00E94AE1AA8
:1024A000A72CB82CC92CDB2EEA2EFF2E0E2F152DB3
:1024B0000E94EE1A02E00E94AE1A0E2F0E94EE1A3F
:1024C00001E00E94AE1A0E2F0E94EE1A2596AFACC4
:1024D00025972696BFAC26972796CFAC27972896A8
:1024E000DFAC28972996EFAC29972A96FFAC2A975C
:1024F0002B960FAD2B972C961FAD2C970E94101A80
:102500002EAB3AAF4BAF5CAF6DAF7EAF8FAF2196C6
:102510009FAF21970DE00E94C71A322E432E542EF2
:10252000652E762E872E982E292E3091A50120918A
:10253000A401932F990F990BA32CB42CC52CD62C46
:10254000E72CF82C092D122D492F592F692F792F9F
:10255000892F0E94B5190E94B51909E10E94C71A76
:1025600059016A017B018C012EA93AAD4BAD5CADDE
:102570006DAD7EAD8FAD21969FAD21970E94E51A7E
:1025800019012A013B014C013091A3012091A201C4
:10259000932F990F990BAEA8BAACCBACDCACEDACD9
:1025A000FEAC0FAD21961FAD2197492F592F692FF2
:1025B000792F892F0E94B51903E10E94C71A59018A
:1025C0006A017B018C019101A201B301C4010E9447
:1025D000E51A08E00E94C71A39014A01B62FA72F51
:1025E000F82FE92F3091A1012091A001932F990F8D
:1025F000990B492F592F692F792F892F04E00E94B9
:10260000AE1A59016A017B018C019301A4016B2F61
:102610007A2F8F2F9E2F0E94E51A49015A01992780
:102620008B2D7A2D692D03C060E070E0CB010E94F4
:10263000A91720E030E048EC52E40E94F5182B0185
:102640003C010E94EA038DEF0E94E5028090AF01F9
:102650009090B001A090B101B090B2013CE2931A09
:1026600031E0A30AB1086C01E12CF12C3EE0CC0C66
:10267000DD1CEE1CFF1C3A95D1F74091AA01509148
:10268000AB01052E000C660B770BE4E1440F551FE0
:10269000661F771FEA95D1F7C41AD50AE60AF70A2A
:1026A000A091AC01B091AD01A50194010E94AD19BA
:1026B000C61AD70AE80AF90A40E4D40EE11CF11C54
:1026C000FFE0F594E794D794C794FA95D1F7A091D9
:1026D000AE010A2E000CBB0BA50194010E94AD199E
:1026E0009B01AC01AAE05595479537952795AA958A
:1026F000D1F72EAB3FAB48AF59AFA091A901B0E0E5
:10270000A50194010E94A418DC01CB011BE0B59542
:10271000A795979587951A95D1F7BC01CD0170586B
:102720008F4F9F4F2EA93FA948AD59AD0E949D19CB
:10273000DC01CB010AE0B595A795979587950A9599
:10274000D1F79C01AD01405E5F4FA091A701B09110
:10275000A8010E94AD19DC01CB01905EAF4FBF4FC5
:10276000BC01CD012EE095958795779567952A95C3
:10277000D1F7A70196010E949D196B017C013FE0F2
:1027800095958795779567953A95D1F79B01AC011B
:102790000E949D199B01AC0167E0559547953795BF
:1027A00027956A95D1F7A091A601B0E00E94A418E0
:1027B000DC01CB0174E0B595A795979587957A953F
:1027C000D1F7A7019601281B390B4A0B5B0BDA01E5
:1027D000C90157FF03C080E090E0DC018130910522
:1027E000A10539E1B30724F080E090E0A0E0B9E171
:1027F000BC01CD012CE095958795779567952A9535
:10280000D1F70E94A91720E030E040E85AE30E9487
:10281000E6170E946E190E94A9176B017C0163E004
:102820008AE00E94660368E471E0CE018E960E9401
:10283000A80B1BA21AA21DA21CA21FA21EA28E01DF
:102840000F5F1F4F22E044E068966CAD7DAD8EAD0A
:102850009FAD68970E94E314BC01CE0182960E944E
:10286000490B66E571E0C8010E94A80BBE016E5DD0
:102870007F4FC8010E94B1048C018FED88A719A673
:1028800041E050E0BE01685D7F4FC8010E946A04CC
:10289000811103C0C8010E94160B60E571E0C801F8
:1028A0000E949804BC01CE018E960E94600BCE015E
:1028B00001960E94770BCE0182960E94770BCE0183
:1028C0008E960E945D0361E080E00E94660368E4EA
:1028D00071E0CE018E960E94490BC701B6010E949D
:1028E00067194AE0CE0101960E947C0B6AE571E00F
:1028F000CE0182960E94A80BBE016F5F7F4FCE0172
:1029000082960E94B10467E671E00E949804BC01BF
:10291000CE018E960E94600BCE0182960E94770BAC
:10292000CE0101960E94770BCE018E960E945D0328
:1029300062E080E00E94660368E471E0CE01889660
:102940000E94A80B68E471E0CE0188960E94490BB2
:10295000C301B2010E9467194AE0CE0101960E94AC
:102960007C0B6DE671E0CE0182960E94A80BBE0141
:102970006F5F7F4FCE0182960E94B10468E771E0DD
:102980000E949804BC01CE0188960E94600BCE0183
:1029900082960E94770BCE0101960E94770BCE01A2
:1029A00088960E945D03CE0188960E94770BCE0127
:1029B0008E960E94770B0E94E2054DC98FE791E049
:1029C0000E945F0138C9EF920F931F93CF93DF935B
:1029D000E80147FD02C034E001C034E1E42F440FB8
:1029E000FF0BF7FF03C0F195E195F109E32E022FEC
:1029F0002E2FAE010E943315CE01DF91CF911F9192
:102A00000F91EF9008954532510520F4423010F0B7
:102A10000C940E15FB011082CB010895BB274A30A0
:102A200031F4992322F4BDE2909581959F4F0C9447
:102A30001A15BB27FB015527AA27880F991FAA1F24
:102A4000A41710F0A41B83955051B9F7A05DAA33C9
:102A500008F0A95DA193009779F7B111B193119294
:102A6000CB010C9499174F925F926F927F929F9235
:102A7000AF92BF92CF92DF92EF92FF920F931F938C
:102A8000CF93DF93CDB7DEB729970FB6F894DEBFAB
:102A90000FBECDBF6A01122FB02E2BE3201720F0FE
:102AA000FF24F394F00E02C0BCE3FB2E0F2D27E0B1
:102AB000AE014F5F5F4F0E94C116AC018981982F14
:102AC0009970913031F0E1FC06C0E0FE06C090E262
:102AD00005C09DE203C09BE201C090E0EE2DE071D5
:102AE00083FF3CC0911102C083E001C084E08117E4
:102AF00018F4212F281B01C020E0E1110BC0F601C2
:102B0000822F30E2882319F031938150FBCFC20E1F
:102B1000D11C20E0992329F0D6019C93F60131962F
:102B20006F01C6010396E2FE0AC03EE4D6013C9363
:102B300041E411964C93119712963C9306C03EE6E1
:102B4000F601308341E641833283FC01322F40E2BB
:102B5000332309F442C041933150FACF82FF44C07D
:102B6000911102C083E001C084E0811718F4212F85
:102B7000281B01C020E0E1110BC0F601822F30E2DA
:102B8000882319F031938150FBCFC20ED11C20E075
:102B9000992329F0D6019C93F60131966F01C60165
:102BA0000396E2FE0BC039E4D6013C933EE4119655
:102BB0003C93119736E412963C9307C039E6F60130
:102BC00030833EE6318336E63283FC01322F40E229
:102BD000332319F041933150FBCFFC01E20FF11D7B
:102BE00010828EEF9FEFB7C0F1E0911101C0F0E0CD
:102BF0006F2F70E01416150624F49A012F5F3F4FD3
:102C000002C021E030E0260F371FBB2029F06B2DDA
:102C100070E06F5F7F4F02C060E070E0260F371FEB
:102C2000612F70E0261737071CF4121B212F01C0FB
:102C300020E03E2D387159F4D601322F60E2332363
:102C400019F06D933150FBCFC20ED11C20E0FF2351
:102C500031F0D6019C93B6016F5F7F4F6B01E1119C
:102C60000BC0F601922F30E3992319F03193915064
:102C7000FBCFC20ED11C20E09F2D940F3A81782FFC
:102C80007071A72E84FF03C0313309F491501916D7
:102C900024F4993018F098E001C091E0E42F852FDA
:102CA00057FF02C0E0E080E06E2F782FE0E0F0E018
:102CB000AEE29A2E3A01691A71082A01461A570A99
:102CC0000B2D10E01195019511096F3F8FEF7807DB
:102CD00029F4D6019C92C60101966C01461757074C
:102CE00084F0661677066CF47F01E40CF51CA1E015
:102CF000B0E0AC0FBD1FEA0EFB1ED7011196BC90D1
:102D000002C090E3B92E615071093196C601019657
:102D10007C016017710724F0D601BC926C01D5CFFD
:102D20006417750741F4363320F4353321F4A110CC
:102D300002C081E3B82EF601B082F701822F90E243
:102D4000882319F091938150FBCFF701E20FF11D19
:102D5000108280E090E029960FB6F894DEBF0FBE97
:102D6000CDBFDF91CF911F910F91FF90EF90DF903A
:102D7000CF90BF90AF909F907F906F905F904F905B
:102D80000895283008F027E03327DA01990F311D24
:102D900087FD916000966105710539F432602E5F00
:102DA0003D9330E32A95E1F708959F3F30F0803856
:102DB0007105610509F03C5F3C5F3D93913008F07F
:102DC0008068911DDF93CF931F930F93FF92EF9233
:102DD000192F987F9695E92F96959695E90FFF27DD
:102DE000EE53FF4F99273327EE24FF24A701E70175
:102DF00005900894079428F4360FE71EF81E491F23
:102E0000511D660F771F881F991F0694A1F7059023
:102E1000079428F4E70EF81E491F561FC11D770FAF
:102E2000881F991F661F0694A1F70590079428F440
:102E3000F80E491F561FC71FD11D880F991F661F07
:102E4000771F0694A1F70590079420F4490F561FA9
:102E5000C71FD81F990F661F771F881F0694A9F7F1
:102E600084911095177041F0D695C7955795479561
:102E7000F794E7941A95C1F7E8E6F0E068941590A6
:102E8000159135916591959105907FE27395E118C3
:102E9000F10A430B560BC90BD009C0F7E10CF11E28
:102EA000431F561FC91FD01D7EF4703311F48A953D
:102EB000E6CFE894015030F0080F0AF4002702171B
:102EC00008F4202F2395022F7A3328F079E37D939D
:102ED0002A95E9F710C07D932A9589F6069497956F
:102EE0006795379517951794E118F10A430B560B20
:102EF000C90BD00998F023957E9173957A3308F029
:102F000070E37C932013B8F77E9170617D9330F06D
:102F1000839571E37D9370E32A95E1F71124EF9097
:102F2000FF900F911F91CF91DF91992787FD909589
:102F30000895DC01FC01672F71917723E1F7329747
:102F400004C07C916D9370836291AE17BF07C8F384
:102F50000895E89409C097FB3EF49095809570958C
:102F600061957F4F8F4F9F4F9923A9F0F92F96E9D5
:102F7000BB279395F695879577956795B795F1114A
:102F8000F8CFFAF4BB0F11F460FF1BC06F5F7F4FE7
:102F90008F4F9F4F16C0882311F096E911C07723F9
:102FA00021F09EE8872F762F05C0662371F096E802
:102FB000862F70E060E02AF09A95660F771F881FD1
:102FC000DAF7880F9695879597F908950E94F91773
:102FD0000C946A180E945C1838F00E94631820F064
:102FE000952311F00C9453180C94591811240C9437
:102FF0009E180E947B1870F3959FC1F3950F50E0C7
:10300000551F629FF001729FBB27F00DB11D639F9A
:10301000AA27F00DB11DAA1F649F6627B00DA11D40
:10302000661F829F2227B00DA11D621F739FB00DE6
:10303000A11D621F839FA00D611D221F749F332756
:10304000A00D611D231F849F600D211D822F762FEF
:103050006A2F11249F5750409AF0F1F088234AF0CC
:10306000EE0FFF1FBB1F661F771F881F9150504038
:10307000A9F79E3F510580F00C9453180C949E18AC
:103080005F3FE4F3983ED4F3869577956795B795BF
:10309000F795E7959F5FC1F7FE2B880F911D9695D9
:1030A000879597F9089597F99F6780E870E060E049
:1030B00008959FEF80EC089500240A9416161706D1
:1030C00018060906089500240A9412161306140619
:1030D00005060895092E0394000C11F4882352F07C
:1030E000BB0F40F4BF2B11F460FF04C06F5F7F4F34
:1030F0008F4F9F4F089557FD9058440F551F59F01B
:103100005F3F71F04795880F97FB991F61F09F3FD4
:1031100079F087950895121613061406551FF2CFFD
:103120004695F1DF08C0161617061806991FF1CF4D
:1031300086957105610508940895E894BB27662774
:103140007727CB0197F908950E94E618A59F900D67
:10315000B49F900DA49F800D911D112408952F926E
:103160003F924F925F926F927F928F929F92AF9217
:10317000BF92CF92DF92EF92FF920F931F93CF9364
:10318000DF93CDB7DEB7CA1BDB0B0FB6F894DEBFFB
:103190000FBECDBF09942A88398848885F846E8421
:1031A0007D848C849B84AA84B984C884DF80EE806B
:1031B000FD800C811B81AA81B981CE0FD11D0FB674
:1031C000F894DEBF0FBECDBFED010895A29FB00100
:1031D000B39FC001A39F700D811D1124911DB29F4B
:1031E000700D811D1124911D08950E9409190C94E0
:1031F0006A180E94631858F00E945C1840F029F485
:103200005F3F29F00C94531851110C949E180C94A4
:1032100059180E947B1868F39923B1F3552391F351
:10322000951B550BBB27AA2762177307840738F035
:103230009F5F5F4F220F331F441FAA1FA9F335D092
:103240000E2E3AF0E0E832D091505040E695001C46
:10325000CAF72BD0FE2F29D0660F771F881FBB1F00
:10326000261737074807AB07B0E809F0BB0B802DDE
:10327000BF01FF2793585F4F3AF09E3F510578F00A
:103280000C9453180C949E185F3FE4F3983ED4F3CB
:10329000869577956795B795F7959F5FC9F7880FDE
:1032A000911D9695879597F90895E1E0660F771F30
:1032B000881FBB1F621773078407BA0720F0621BC1
:1032C000730B840BBA0BEE1F88F7E09508950E94EC
:1032D0006E196894B1110C949E1808950E94831879
:1032E00088F09F5798F0B92F9927B751B0F0E1F0C7
:1032F000660F771F881F991F1AF0BA95C9F714C077
:10330000B13091F00E949D18B1E008950C949D1881
:10331000672F782F8827B85F39F0B93FCCF38695AF
:1033200077956795B395D9F73EF49095809570950C
:1033300061957F4F8F4F9F4F0895DB018F939F9330
:103340000E94A418BF91AF91A29F800D911DA39FD1
:10335000900DB29F900D11240895B7FF0C94A418FE
:103360000E94A418821B930B0895DF93CF931F93A1
:103370000F939A9DF02D219FF00D8B9DF00D8A9D4E
:10338000E02DF10D039FF00D029FE00DF11D4E9D0C
:10339000E00DF11D5E9DF00D4F9DF00D7F936F933D
:1033A000BF92AF925F934F93D5010E94E6188B01B5
:1033B000AC01D7010E94E618EB01E80FF91FD60116
:1033C0000E94051A2F913F91D6010E94E618C60F60
:1033D000D71FE81FF91FAF91BF910E94051A2F91C7
:1033E0003F910E94E618C60FD71FE81FF91FD601AC
:1033F0000E94E618E60FF71F9801BE01CF011124C5
:103400000F911F91CF91DF9108950E94E618460F0A
:10341000571FC81FD91F08F431960895689401C03A
:10342000E894F92FF12B12F00C94421AA0E0B0E0CE
:10343000ECE1FAE10C94B518092E059422F40E94EF
:103440009E1A112392F4F0E80F26FFEFE094F09417
:1034500000951095B094C094D094A194BF0ACF0A5F
:10346000DF0AEF0AFF0A0F0B1F0B0E944D1A07FC21
:103470000E949E1ACDB7DEB7ECE00C94D118689488
:1034800001C0E8948F929F92CF93DF930E944D1AD0
:10349000DF91CF919F908F90089588249924F40113
:1034A000E401B0E49F93AA279A158B049C04ED05D0
:1034B000FE05CF05D007A10798F4AD2FDC2FCF2F45
:1034C000FE2FE92D982C892E982F872F762F652F88
:1034D000542F432F322F2227B85031F7BF9127C0E6
:1034E0001B2EBF91BB27220F331F441F551F661F82
:1034F000771F881F991F881C991CEE1FFF1FCC1F68
:10350000DD1FAA1FBB1F8A149B04EC05FD05CE0519
:10351000DF05A007B10748F08A189B08EC09FD09F0
:10352000CE09DF09A00BB10B21601A94E1F62EF44D
:103530009401AF01BE01CD01000C08956095709516
:103540008095909530954095509521953F4F4F4FE0
:103550005F4F6F4F7F4F8F4F9F4F08950F930830EE
:1035600090F0982F872F762F652F542F432F322FCF
:1035700022270850F4CF220F331F441F551F661F08
:10358000771F881F991F0A95B2F70F91089597FB2F
:1035900010F8169400080F93083098F00850232F65
:1035A000342F452F562F672F782F892F902DF4CF4A
:1035B000059497958795779567955795479537958E
:1035C00027950A95AAF70F9108952A0D3B1D4C1DCA
:1035D0005D1D6E1D7F1D801F911F08952A193B09D7
:1035E0004C095D096E097F09800B910B0895002439
:1035F000A7FD00942A1730054005500560057005A9
:10360000800590050895EE0FFF1F0590F491E02DC1
:103610000994CF93DF938230910510F482E090E01B
:10362000E0915603F091570320E030E0C0E0D0E095
:10363000309711F14081518148175907C0F0481760
:10364000590761F482819381209719F09B838A83C3
:103650002BC0909357038093560326C02115310544
:1036600019F04217530718F49A01BE01DF01EF0168
:103670000280F381E02DDCCF2115310509F1281BF3
:10368000390B2430310590F412968D919C9113974B
:103690006115710521F0FB019383828304C090932F
:1036A000570380935603FD01329644C0FD01E20F9B
:1036B000F31F81939193225031092D933C933AC08B
:1036C0002091540330915503232B41F420910A019A
:1036D00030910B013093550320935403209108013E
:1036E000309109012115310541F42DB73EB74091C4
:1036F0000C0150910D01241B350BE0915403F09106
:103700005503E217F307A0F42E1B3F0B28173907C8
:1037100078F0AC014E5F5F4F2417350748F04E0F2D
:103720005F1F50935503409354038193919302C0BC
:10373000E0E0F0E0CF01DF91CF9108950F931F9368
:10374000CF93DF93009709F48CC0FC01329713826A
:10375000128200915603109157030115110581F44F
:1037600020813181820F931F2091540330915503A2
:103770002817390779F5F0935503E093540371C086
:10378000D80140E050E0AE17BF0750F412962D91DB
:103790003C911397AD012115310509F1D901F3CF02
:1037A0009D01DA013383228360817181860F971F27
:1037B0008217930769F4EC0128813981260F371F9E
:1037C0002E5F3F4F318320838A819B819383828345
:1037D000452B29F4F0935703E093560342C0139608
:1037E000FC93EE931297ED01499159919E01240F9C
:1037F000351FE217F30771F480819181840F951FC3
:10380000029611969C938E938281938113969C933A
:103810008E931297E0E0F0E0D80112968D919C9182
:103820001397009719F0F8018C01F6CF8D919C91B8
:1038300098012E5F3F4F820F931F209154033091C8
:1038400055032817390769F4309729F41092570364
:103850001092560302C013821282109355030093F4
:103860005403DF91CF911F910F910895A0E0B0E034
:10387000ECE3FCE10C94B318EC01009721F4CB01CC
:103880000E94091BB8C0FC01E60FF71F9C012250E3
:103890003109E217F30708F4ACC0D9010D911C916E
:1038A000119706171707B0F00530110508F49FC0EF
:1038B000C80104978617970708F499C002501109A8
:1038C000061B170B019311936D937C93CF010E94FC
:1038D0009E1B8DC05B01A01AB10A4C01800E911E87
:1038E000A0915603B091570340E050E0E12CF12C39
:1038F000109709F44AC0A815B905D1F56D907C90D0
:103900001197630182E0C80ED11CCA14DB0480F158
:10391000A3014A195B096A0182E0C80ED11C129604
:10392000BC9012971396AC91B5E0CB16D10440F041
:10393000B282A38351834083D9016D937C930AC0E3
:103940000E5F1F4FC301800F911FF9019183808388
:10395000EB2DFA2FE114F10431F0D7011396FC930B
:10396000EE93129744C0F0935703E09356033FC081
:103970008D919C9111974817590708F4AC017D016E
:1039800012960D90BC91A02DB3CF809154039091CD
:10399000550388159905E1F446175707C8F4809137
:1039A000080190910901009741F48DB79EB74091AD
:1039B0000C0150910D01841B950BE817F907C8F411
:1039C000F0935503E0935403F901718360830FC0B2
:1039D000CB010E94091B7C01009759F0A801BE0190
:1039E0000E94051DCE010E949E1BC70104C0CE018E
:1039F00002C080E090E0CDB7DEB7EEE00C94CF18C7
:103A000081E090E0F8940C94151DFB01DC0102C0EC
:103A100001900D9241505040D8F70895FB01DC0110
:0E3A200001900D920020E1F70895F894FFCF79
:103A2E0028FA1FDA0400003400005803800000005A
:103A3E00400014005400000000001505C40ADA040A
:103A4E005C05D605E904FD04000000009F066F0624
:103A5E00CF064306670653064406000000005B08C7
:103A6E00C40ACF06CE060D0A0030003A002F002001
:103A7E004320004F200020492000202048756D690A
:103A8E00646974792020002025526820002050722D
:103A9E006573737572652000204D6261722000445B
:0E3AAE006576696365206572726F7221000093
:00000001FF
